{
  "contractName": "DAppVote",
  "abi": [
    {
      "constant": true,
      "inputs": [
        {
          "name": "",
          "type": "address"
        }
      ],
      "name": "dAppsMap",
      "outputs": [
        {
          "name": "owner",
          "type": "address"
        },
        {
          "name": "dAppAddr",
          "type": "address"
        },
        {
          "name": "name",
          "type": "string"
        },
        {
          "name": "desc",
          "type": "string"
        },
        {
          "name": "url",
          "type": "string"
        },
        {
          "name": "abi",
          "type": "string"
        },
        {
          "name": "logoUrl",
          "type": "string"
        },
        {
          "name": "voteCount",
          "type": "uint256"
        },
        {
          "name": "createTime",
          "type": "uint256"
        },
        {
          "name": "value",
          "type": "uint256"
        }
      ],
      "payable": false,
      "stateMutability": "view",
      "type": "function"
    },
    {
      "constant": true,
      "inputs": [
        {
          "name": "",
          "type": "address"
        }
      ],
      "name": "voters",
      "outputs": [
        {
          "name": "voterAddress",
          "type": "address"
        },
        {
          "name": "dAppIndex",
          "type": "uint256"
        },
        {
          "name": "hasVote",
          "type": "uint256"
        },
        {
          "name": "voteValue",
          "type": "uint256"
        }
      ],
      "payable": false,
      "stateMutability": "view",
      "type": "function"
    },
    {
      "constant": true,
      "inputs": [],
      "name": "contractOwner",
      "outputs": [
        {
          "name": "",
          "type": "address"
        }
      ],
      "payable": false,
      "stateMutability": "view",
      "type": "function"
    },
    {
      "constant": true,
      "inputs": [
        {
          "name": "",
          "type": "uint256"
        }
      ],
      "name": "dAppArray",
      "outputs": [
        {
          "name": "",
          "type": "address"
        }
      ],
      "payable": false,
      "stateMutability": "view",
      "type": "function"
    },
    {
      "inputs": [],
      "payable": false,
      "stateMutability": "nonpayable",
      "type": "constructor"
    },
    {
      "payable": true,
      "stateMutability": "payable",
      "type": "fallback"
    },
    {
      "anonymous": false,
      "inputs": [
        {
          "indexed": false,
          "name": "from_addr",
          "type": "address"
        },
        {
          "indexed": false,
          "name": "to_addr",
          "type": "address"
        },
        {
          "indexed": false,
          "name": "getVoteCount",
          "type": "uint256"
        },
        {
          "indexed": false,
          "name": "voteValue",
          "type": "uint256"
        }
      ],
      "name": "voteEvent",
      "type": "event"
    },
    {
      "anonymous": false,
      "inputs": [
        {
          "indexed": false,
          "name": "from_addr",
          "type": "address"
        }
      ],
      "name": "sinUpEvent",
      "type": "event"
    },
    {
      "anonymous": false,
      "inputs": [
        {
          "indexed": false,
          "name": "from_addr",
          "type": "address"
        },
        {
          "indexed": false,
          "name": "old_addr",
          "type": "address"
        },
        {
          "indexed": false,
          "name": "new_addr",
          "type": "address"
        }
      ],
      "name": "modifyEvent",
      "type": "event"
    },
    {
      "anonymous": false,
      "inputs": [
        {
          "indexed": false,
          "name": "from_addr",
          "type": "address"
        },
        {
          "indexed": false,
          "name": "to_addr",
          "type": "address"
        },
        {
          "indexed": false,
          "name": "success",
          "type": "bool"
        }
      ],
      "name": "transEvent",
      "type": "event"
    },
    {
      "constant": false,
      "inputs": [
        {
          "name": "appAddr",
          "type": "address"
        },
        {
          "name": "nameAdd",
          "type": "string"
        },
        {
          "name": "descAdd",
          "type": "string"
        },
        {
          "name": "urlAdd",
          "type": "string"
        },
        {
          "name": "abiAdd",
          "type": "string"
        },
        {
          "name": "logoAdd",
          "type": "string"
        }
      ],
      "name": "commitApp",
      "outputs": [],
      "payable": false,
      "stateMutability": "nonpayable",
      "type": "function"
    },
    {
      "constant": false,
      "inputs": [
        {
          "name": "newAppAddr",
          "type": "address"
        },
        {
          "name": "nameAdd",
          "type": "string"
        },
        {
          "name": "descAdd",
          "type": "string"
        },
        {
          "name": "urlAdd",
          "type": "string"
        },
        {
          "name": "abiAdd",
          "type": "string"
        },
        {
          "name": "logoAdd",
          "type": "string"
        },
        {
          "name": "dAppIndex",
          "type": "uint256"
        }
      ],
      "name": "modifyAppInfo",
      "outputs": [],
      "payable": false,
      "stateMutability": "nonpayable",
      "type": "function"
    },
    {
      "constant": false,
      "inputs": [
        {
          "name": "appAddr",
          "type": "address"
        },
        {
          "name": "dAppIndex",
          "type": "uint256"
        }
      ],
      "name": "vote",
      "outputs": [],
      "payable": true,
      "stateMutability": "payable",
      "type": "function"
    },
    {
      "constant": true,
      "inputs": [],
      "name": "getApps",
      "outputs": [
        {
          "name": "",
          "type": "uint256"
        }
      ],
      "payable": false,
      "stateMutability": "view",
      "type": "function"
    },
    {
      "constant": true,
      "inputs": [
        {
          "name": "appAddr",
          "type": "address"
        }
      ],
      "name": "validDApp",
      "outputs": [
        {
          "name": "",
          "type": "bool"
        }
      ],
      "payable": false,
      "stateMutability": "view",
      "type": "function"
    },
    {
      "constant": true,
      "inputs": [],
      "name": "validVoter",
      "outputs": [
        {
          "name": "",
          "type": "bool"
        }
      ],
      "payable": false,
      "stateMutability": "view",
      "type": "function"
    },
    {
      "constant": true,
      "inputs": [
        {
          "name": "appAddr",
          "type": "address"
        }
      ],
      "name": "validOwner",
      "outputs": [
        {
          "name": "",
          "type": "bool"
        }
      ],
      "payable": false,
      "stateMutability": "view",
      "type": "function"
    },
    {
      "constant": false,
      "inputs": [
        {
          "name": "toAddr",
          "type": "address"
        },
        {
          "name": "num",
          "type": "uint256"
        }
      ],
      "name": "trans",
      "outputs": [],
      "payable": true,
      "stateMutability": "payable",
      "type": "function"
    },
    {
      "constant": true,
      "inputs": [],
      "name": "getBalance",
      "outputs": [
        {
          "name": "",
          "type": "uint256"
        }
      ],
      "payable": false,
      "stateMutability": "view",
      "type": "function"
    }
  ],
  "bytecode": "0x608060405234801561001057600080fd5b5033600360006101000a81548173ffffffffffffffffffffffffffffffffffffffff021916908373ffffffffffffffffffffffffffffffffffffffff1602179055506123bf806100616000396000f3006080604052600436106100c5576000357c0100000000000000000000000000000000000000000000000000000000900463ffffffff16806312065fe0146100c757806315018353146100f2578063167602ae146103d95780633d2bc6de1461057a5780635f74bbde146105ba5780638a4e1838146105fa578063a02cb26514610629578063a3ec138d146107d4578063be2cede51461086c578063ce606ee0146108c7578063d66d756d1461091e578063ef4762f414610949578063f85ec73b146109a4575b005b3480156100d357600080fd5b506100dc610a11565b6040518082815260200191505060405180910390f35b3480156100fe57600080fd5b50610133600480360381019080803573ffffffffffffffffffffffffffffffffffffffff169060200190929190505050610a8c565b604051808b73ffffffffffffffffffffffffffffffffffffffff1673ffffffffffffffffffffffffffffffffffffffff1681526020018a73ffffffffffffffffffffffffffffffffffffffff1673ffffffffffffffffffffffffffffffffffffffff168152602001806020018060200180602001806020018060200189815260200188815260200187815260200186810386528e818151815260200191508051906020019080838360005b838110156101f95780820151818401526020810190506101de565b50505050905090810190601f1680156102265780820380516001836020036101000a031916815260200191505b5086810385528d818151815260200191508051906020019080838360005b8381101561025f578082015181840152602081019050610244565b50505050905090810190601f16801561028c5780820380516001836020036101000a031916815260200191505b5086810384528c818151815260200191508051906020019080838360005b838110156102c55780820151818401526020810190506102aa565b50505050905090810190601f1680156102f25780820380516001836020036101000a031916815260200191505b5086810383528b818151815260200191508051906020019080838360005b8381101561032b578082015181840152602081019050610310565b50505050905090810190601f1680156103585780820380516001836020036101000a031916815260200191505b5086810382528a818151815260200191508051906020019080838360005b83811015610391578082015181840152602081019050610376565b50505050905090810190601f1680156103be5780820380516001836020036101000a031916815260200191505b509f5050505050505050505050505050505060405180910390f35b3480156103e557600080fd5b50610578600480360381019080803573ffffffffffffffffffffffffffffffffffffffff169060200190929190803590602001908201803590602001908080601f0160208091040260200160405190810160405280939291908181526020018383808284378201915050505050509192919290803590602001908201803590602001908080601f0160208091040260200160405190810160405280939291908181526020018383808284378201915050505050509192919290803590602001908201803590602001908080601f0160208091040260200160405190810160405280939291908181526020018383808284378201915050505050509192919290803590602001908201803590602001908080601f0160208091040260200160405190810160405280939291908181526020018383808284378201915050505050509192919290803590602001908201803590602001908080601f0160208091040260200160405190810160405280939291908181526020018383808284378201915050505050509192919290505050610e18565b005b6105b8600480360381019080803573ffffffffffffffffffffffffffffffffffffffff169060200190929190803590602001909291905050506110f4565b005b6105f8600480360381019080803573ffffffffffffffffffffffffffffffffffffffff16906020019092919080359060200190929190505050611285565b005b34801561060657600080fd5b5061060f61156a565b604051808215151515815260200191505060405180910390f35b34801561063557600080fd5b506107d2600480360381019080803573ffffffffffffffffffffffffffffffffffffffff169060200190929190803590602001908201803590602001908080601f0160208091040260200160405190810160405280939291908181526020018383808284378201915050505050509192919290803590602001908201803590602001908080601f0160208091040260200160405190810160405280939291908181526020018383808284378201915050505050509192919290803590602001908201803590602001908080601f0160208091040260200160405190810160405280939291908181526020018383808284378201915050505050509192919290803590602001908201803590602001908080601f0160208091040260200160405190810160405280939291908181526020018383808284378201915050505050509192919290803590602001908201803590602001908080601f0160208091040260200160405190810160405280939291908181526020018383808284378201915050505050509192919290803590602001909291905050506115c7565b005b3480156107e057600080fd5b50610815600480360381019080803573ffffffffffffffffffffffffffffffffffffffff169060200190929190505050611fed565b604051808573ffffffffffffffffffffffffffffffffffffffff1673ffffffffffffffffffffffffffffffffffffffff16815260200184815260200183815260200182815260200194505050505060405180910390f35b34801561087857600080fd5b506108ad600480360381019080803573ffffffffffffffffffffffffffffffffffffffff16906020019092919050505061203d565b604051808215151515815260200191505060405180910390f35b3480156108d357600080fd5b506108dc61210a565b604051808273ffffffffffffffffffffffffffffffffffffffff1673ffffffffffffffffffffffffffffffffffffffff16815260200191505060405180910390f35b34801561092a57600080fd5b50610933612130565b6040518082815260200191505060405180910390f35b34801561095557600080fd5b5061098a600480360381019080803573ffffffffffffffffffffffffffffffffffffffff16906020019092919050505061213d565b604051808215151515815260200191505060405180910390f35b3480156109b057600080fd5b506109cf600480360381019080803590602001909291905050506121e8565b604051808273ffffffffffffffffffffffffffffffffffffffff1673ffffffffffffffffffffffffffffffffffffffff16815260200191505060405180910390f35b6000600360009054906101000a900473ffffffffffffffffffffffffffffffffffffffff1673ffffffffffffffffffffffffffffffffffffffff163373ffffffffffffffffffffffffffffffffffffffff16141515610a6f57600080fd5b3373ffffffffffffffffffffffffffffffffffffffff1631905090565b60016020528060005260406000206000915090508060000160009054906101000a900473ffffffffffffffffffffffffffffffffffffffff16908060010160009054906101000a900473ffffffffffffffffffffffffffffffffffffffff1690806002018054600181600116156101000203166002900480601f016020809104026020016040519081016040528092919081815260200182805460018160011615610100020316600290048015610b845780601f10610b5957610100808354040283529160200191610b84565b820191906000526020600020905b815481529060010190602001808311610b6757829003601f168201915b505050505090806003018054600181600116156101000203166002900480601f016020809104026020016040519081016040528092919081815260200182805460018160011615610100020316600290048015610c225780601f10610bf757610100808354040283529160200191610c22565b820191906000526020600020905b815481529060010190602001808311610c0557829003601f168201915b505050505090806004018054600181600116156101000203166002900480601f016020809104026020016040519081016040528092919081815260200182805460018160011615610100020316600290048015610cc05780601f10610c9557610100808354040283529160200191610cc0565b820191906000526020600020905b815481529060010190602001808311610ca357829003601f168201915b505050505090806005018054600181600116156101000203166002900480601f016020809104026020016040519081016040528092919081815260200182805460018160011615610100020316600290048015610d5e5780601f10610d3357610100808354040283529160200191610d5e565b820191906000526020600020905b815481529060010190602001808311610d4157829003601f168201915b505050505090806006018054600181600116156101000203166002900480601f016020809104026020016040519081016040528092919081815260200182805460018160011615610100020316600290048015610dfc5780601f10610dd157610100808354040283529160200191610dfc565b820191906000526020600020905b815481529060010190602001808311610ddf57829003601f168201915b505050505090806007015490806008015490806009015490508a565b610e218661203d565b151515610e2d57600080fd5b610140604051908101604052803373ffffffffffffffffffffffffffffffffffffffff1681526020018773ffffffffffffffffffffffffffffffffffffffff168152602001868152602001858152602001848152602001838152602001828152602001600081526020014281526020016000815250600160008873ffffffffffffffffffffffffffffffffffffffff1673ffffffffffffffffffffffffffffffffffffffff16815260200190815260200160002060008201518160000160006101000a81548173ffffffffffffffffffffffffffffffffffffffff021916908373ffffffffffffffffffffffffffffffffffffffff16021790555060208201518160010160006101000a81548173ffffffffffffffffffffffffffffffffffffffff021916908373ffffffffffffffffffffffffffffffffffffffff1602179055506040820151816002019080519060200190610f8b929190612226565b506060820151816003019080519060200190610fa8929190612226565b506080820151816004019080519060200190610fc5929190612226565b5060a0820151816005019080519060200190610fe2929190612226565b5060c0820151816006019080519060200190610fff929190612226565b5060e082015181600701556101008201518160080155610120820151816009015590505060028690806001815401808255809150509060018203906000526020600020016000909192909190916101000a81548173ffffffffffffffffffffffffffffffffffffffff021916908373ffffffffffffffffffffffffffffffffffffffff160217905550507f0a650b6bfa5294bda5c4e5a5959255f3a9a991793504fdb80a259ec881265d0233604051808273ffffffffffffffffffffffffffffffffffffffff1673ffffffffffffffffffffffffffffffffffffffff16815260200191505060405180910390a1505050505050565b60008273ffffffffffffffffffffffffffffffffffffffff16141580156111685750600360009054906101000a900473ffffffffffffffffffffffffffffffffffffffff1673ffffffffffffffffffffffffffffffffffffffff163373ffffffffffffffffffffffffffffffffffffffff16145b801561118b57503373ffffffffffffffffffffffffffffffffffffffff16318111155b151561119657600080fd5b8173ffffffffffffffffffffffffffffffffffffffff166108fc829081150290604051600060405180830381858888f193505050501580156111dc573d6000803e3d6000fd5b507f9d33ee55532bf33c3a4b4450ea770d0a1bb28111dd6d19f7ff8eae3b8c20074433836001604051808473ffffffffffffffffffffffffffffffffffffffff1673ffffffffffffffffffffffffffffffffffffffff1681526020018373ffffffffffffffffffffffffffffffffffffffff1673ffffffffffffffffffffffffffffffffffffffff16815260200182151515158152602001935050505060405180910390a15050565b60003373ffffffffffffffffffffffffffffffffffffffff16141580156112b157506112af61156a565b155b15156112bc57600080fd5b6080604051908101604052803373ffffffffffffffffffffffffffffffffffffffff16815260200182815260200160018152602001348152506000803373ffffffffffffffffffffffffffffffffffffffff1673ffffffffffffffffffffffffffffffffffffffff16815260200190815260200160002060008201518160000160006101000a81548173ffffffffffffffffffffffffffffffffffffffff021916908373ffffffffffffffffffffffffffffffffffffffff16021790555060208201518160010155604082015181600201556060820151816003015590505060018060008473ffffffffffffffffffffffffffffffffffffffff1673ffffffffffffffffffffffffffffffffffffffff1681526020019081526020016000206007016000828254019250508190555034600160008473ffffffffffffffffffffffffffffffffffffffff1673ffffffffffffffffffffffffffffffffffffffff168152602001908152602001600020600901600082825401925050819055507fc262fb40cb2be481e31e53bd896df5346c32bcf357e1d5d3fbf164cc399648783383600160008673ffffffffffffffffffffffffffffffffffffffff1673ffffffffffffffffffffffffffffffffffffffff16815260200190815260200160002060070154600160008773ffffffffffffffffffffffffffffffffffffffff1673ffffffffffffffffffffffffffffffffffffffff16815260200190815260200160002060090154604051808573ffffffffffffffffffffffffffffffffffffffff1673ffffffffffffffffffffffffffffffffffffffff1681526020018473ffffffffffffffffffffffffffffffffffffffff1673ffffffffffffffffffffffffffffffffffffffff16815260200183815260200182815260200194505050505060405180910390a15050565b600060016000803373ffffffffffffffffffffffffffffffffffffffff1673ffffffffffffffffffffffffffffffffffffffff1681526020019081526020016000206002015414156115bf57600190506115c4565b600090505b90565b6116096002828154811015156115d957fe5b9060005260206000200160009054906101000a900473ffffffffffffffffffffffffffffffffffffffff1661213d565b151561161457600080fd5b8673ffffffffffffffffffffffffffffffffffffffff1660028281548110151561163a57fe5b9060005260206000200160009054906101000a900473ffffffffffffffffffffffffffffffffffffffff1673ffffffffffffffffffffffffffffffffffffffff16141561195657856001600060028481548110151561169557fe5b9060005260206000200160009054906101000a900473ffffffffffffffffffffffffffffffffffffffff1673ffffffffffffffffffffffffffffffffffffffff1673ffffffffffffffffffffffffffffffffffffffff16815260200190815260200160002060020190805190602001906117109291906122a6565b50846001600060028481548110151561172557fe5b9060005260206000200160009054906101000a900473ffffffffffffffffffffffffffffffffffffffff1673ffffffffffffffffffffffffffffffffffffffff1673ffffffffffffffffffffffffffffffffffffffff16815260200190815260200160002060030190805190602001906117a09291906122a6565b5083600160006002848154811015156117b557fe5b9060005260206000200160009054906101000a900473ffffffffffffffffffffffffffffffffffffffff1673ffffffffffffffffffffffffffffffffffffffff1673ffffffffffffffffffffffffffffffffffffffff16815260200190815260200160002060040190805190602001906118309291906122a6565b50826001600060028481548110151561184557fe5b9060005260206000200160009054906101000a900473ffffffffffffffffffffffffffffffffffffffff1673ffffffffffffffffffffffffffffffffffffffff1673ffffffffffffffffffffffffffffffffffffffff16815260200190815260200160002060050190805190602001906118c09291906122a6565b5081600160006002848154811015156118d557fe5b9060005260206000200160009054906101000a900473ffffffffffffffffffffffffffffffffffffffff1673ffffffffffffffffffffffffffffffffffffffff1673ffffffffffffffffffffffffffffffffffffffff16815260200190815260200160002060060190805190602001906119509291906122a6565b50611ee0565b610140604051908101604052806001600060028581548110151561197657fe5b9060005260206000200160009054906101000a900473ffffffffffffffffffffffffffffffffffffffff1673ffffffffffffffffffffffffffffffffffffffff1673ffffffffffffffffffffffffffffffffffffffff16815260200190815260200160002060000160009054906101000a900473ffffffffffffffffffffffffffffffffffffffff1673ffffffffffffffffffffffffffffffffffffffff1681526020018873ffffffffffffffffffffffffffffffffffffffff16815260200187815260200186815260200185815260200184815260200183815260200160016000600285815481101515611a6757fe5b9060005260206000200160009054906101000a900473ffffffffffffffffffffffffffffffffffffffff1673ffffffffffffffffffffffffffffffffffffffff1673ffffffffffffffffffffffffffffffffffffffff16815260200190815260200160002060070154815260200160016000600285815481101515611ae857fe5b9060005260206000200160009054906101000a900473ffffffffffffffffffffffffffffffffffffffff1673ffffffffffffffffffffffffffffffffffffffff1673ffffffffffffffffffffffffffffffffffffffff16815260200190815260200160002060080154815260200160016000600285815481101515611b6957fe5b9060005260206000200160009054906101000a900473ffffffffffffffffffffffffffffffffffffffff1673ffffffffffffffffffffffffffffffffffffffff1673ffffffffffffffffffffffffffffffffffffffff16815260200190815260200160002060090154815250600160008973ffffffffffffffffffffffffffffffffffffffff1673ffffffffffffffffffffffffffffffffffffffff16815260200190815260200160002060008201518160000160006101000a81548173ffffffffffffffffffffffffffffffffffffffff021916908373ffffffffffffffffffffffffffffffffffffffff16021790555060208201518160010160006101000a81548173ffffffffffffffffffffffffffffffffffffffff021916908373ffffffffffffffffffffffffffffffffffffffff1602179055506040820151816002019080519060200190611cbe929190612226565b506060820151816003019080519060200190611cdb929190612226565b506080820151816004019080519060200190611cf8929190612226565b5060a0820151816005019080519060200190611d15929190612226565b5060c0820151816006019080519060200190611d32929190612226565b5060e082015181600701556101008201518160080155610120820151816009015590505086600282815481101515611d6657fe5b9060005260206000200160006101000a81548173ffffffffffffffffffffffffffffffffffffffff021916908373ffffffffffffffffffffffffffffffffffffffff16021790555060016000600283815481101515611dc157fe5b9060005260206000200160009054906101000a900473ffffffffffffffffffffffffffffffffffffffff1673ffffffffffffffffffffffffffffffffffffffff1673ffffffffffffffffffffffffffffffffffffffff168152602001908152602001600020600080820160006101000a81549073ffffffffffffffffffffffffffffffffffffffff02191690556001820160006101000a81549073ffffffffffffffffffffffffffffffffffffffff0219169055600282016000611e859190612326565b600382016000611e959190612326565b600482016000611ea59190612326565b600582016000611eb59190612326565b600682016000611ec59190612326565b60078201600090556008820160009055600982016000905550505b7f311a907ffe30fe25b1460c555defcb02a3df68074ae6d56bcf60f5333893264133600283815481101515611f1157fe5b9060005260206000200160009054906101000a900473ffffffffffffffffffffffffffffffffffffffff1689604051808473ffffffffffffffffffffffffffffffffffffffff1673ffffffffffffffffffffffffffffffffffffffff1681526020018373ffffffffffffffffffffffffffffffffffffffff1673ffffffffffffffffffffffffffffffffffffffff1681526020018273ffffffffffffffffffffffffffffffffffffffff1673ffffffffffffffffffffffffffffffffffffffff168152602001935050505060405180910390a150505050505050565b60006020528060005260406000206000915090508060000160009054906101000a900473ffffffffffffffffffffffffffffffffffffffff16908060010154908060020154908060030154905084565b6000808273ffffffffffffffffffffffffffffffffffffffff16141580156120f257508173ffffffffffffffffffffffffffffffffffffffff16600160008473ffffffffffffffffffffffffffffffffffffffff1673ffffffffffffffffffffffffffffffffffffffff16815260200190815260200160002060010160009054906101000a900473ffffffffffffffffffffffffffffffffffffffff1673ffffffffffffffffffffffffffffffffffffffff16145b156121005760019050612105565b600090505b919050565b600360009054906101000a900473ffffffffffffffffffffffffffffffffffffffff1681565b6000600280549050905090565b60003373ffffffffffffffffffffffffffffffffffffffff16600160008473ffffffffffffffffffffffffffffffffffffffff1673ffffffffffffffffffffffffffffffffffffffff16815260200190815260200160002060000160009054906101000a900473ffffffffffffffffffffffffffffffffffffffff1673ffffffffffffffffffffffffffffffffffffffff1614156121de57600190506121e3565b600090505b919050565b6002818154811015156121f757fe5b906000526020600020016000915054906101000a900473ffffffffffffffffffffffffffffffffffffffff1681565b828054600181600116156101000203166002900490600052602060002090601f016020900481019282601f1061226757805160ff1916838001178555612295565b82800160010185558215612295579182015b82811115612294578251825591602001919060010190612279565b5b5090506122a2919061236e565b5090565b828054600181600116156101000203166002900490600052602060002090601f016020900481019282601f106122e757805160ff1916838001178555612315565b82800160010185558215612315579182015b828111156123145782518255916020019190600101906122f9565b5b509050612322919061236e565b5090565b50805460018160011615610100020316600290046000825580601f1061234c575061236b565b601f01602090049060005260206000209081019061236a919061236e565b5b50565b61239091905b8082111561238c576000816000905550600101612374565b5090565b905600a165627a7a72305820effd6af3410601e7517ce47fd549ad8c81c8eff354855aa8fb48066d937438460029",
  "source": "pragma solidity ^0.4.24;\r\ncontract DAppVote {\r\n  struct dApp {\r\n    address owner;\r\n    address dAppAddr;\r\n    string name;\r\n    string desc;\r\n    string url;\r\n    string abi;\r\n    string logoUrl;\r\n    uint voteCount;\r\n    uint createTime;\r\n    uint value;\r\n  }\r\n  struct voter {\r\n    address voterAddress;\r\n    uint dAppIndex;//\r\n    uint hasVote;\r\n    uint voteValue;//\r\n  }\r\n\r\n  mapping(address => voter) public voters;\r\n  mapping(address => dApp) public dAppsMap;\r\n  //dApp[] public dApps;\r\n  address[] public dAppArray;\r\n  address public contractOwner;\r\n\r\n  //address\r\n  event voteEvent(address from_addr, address to_addr , uint getVoteCount,uint voteValue);\r\n  event sinUpEvent(address from_addr);\r\n  event modifyEvent(address from_addr, address old_addr, address new_addr);\r\n  event transEvent(address from_addr, address to_addr, bool success);\r\n\r\n  function DAppVote() {\r\n    contractOwner = msg.sender;\r\n  }\r\n\r\n  function() payable { }\r\n\r\n  function commitApp(address appAddr,string nameAdd ,string descAdd,\r\n    string urlAdd,string abiAdd,string logoAdd) public {\r\n    require(!validDApp(appAddr));//\r\n    dAppsMap[appAddr] = dApp(msg.sender, appAddr, nameAdd, descAdd, urlAdd,\r\n      abiAdd, logoAdd, 0, now, 0);\r\n    dAppArray.push(appAddr);\r\n    emit sinUpEvent(msg.sender);\r\n  }\r\n\r\n  //unusage\r\n  // dAppIndexdeploy\r\n  function modifyAppInfo(address newAppAddr,\r\n    string nameAdd,string descAdd,string urlAdd,string abiAdd,\r\n    string logoAdd,uint dAppIndex) public {\r\n    require(validOwner(dAppArray[dAppIndex]));\r\n    if(dAppArray[dAppIndex]==newAppAddr){\r\n      dAppsMap[dAppArray[dAppIndex]].name = nameAdd;\r\n      dAppsMap[dAppArray[dAppIndex]].desc = descAdd;\r\n      dAppsMap[dAppArray[dAppIndex]].url = urlAdd;\r\n      dAppsMap[dAppArray[dAppIndex]].abi = abiAdd;\r\n      dAppsMap[dAppArray[dAppIndex]].logoUrl = logoAdd;\r\n    }else{\r\n      dAppsMap[newAppAddr] = dApp(dAppsMap[dAppArray[dAppIndex]].owner,\r\n        newAppAddr,nameAdd,descAdd,urlAdd,abiAdd,logoAdd,\r\n        dAppsMap[dAppArray[dAppIndex]].voteCount,dAppsMap[dAppArray[dAppIndex]].createTime,\r\n        dAppsMap[dAppArray[dAppIndex]].value);\r\n      dAppArray[dAppIndex] = newAppAddr;\r\n      delete dAppsMap[dAppArray[dAppIndex]];\r\n    }\r\n    emit modifyEvent(msg.sender, dAppArray[dAppIndex],newAppAddr);\r\n  }\r\n\r\n  function vote(address appAddr,uint dAppIndex) payable public {\r\n    require(msg.sender!=0&&!validVoter());\r\n    voters[msg.sender] = voter(msg.sender, dAppIndex ,1, msg.value) ;\r\n    dAppsMap[appAddr].voteCount +=1;\r\n    dAppsMap[appAddr].value += msg.value;\r\n    //\r\n    emit voteEvent(msg.sender,appAddr, dAppsMap[appAddr].voteCount, dAppsMap[appAddr].value);\r\n  }\r\n\r\n  function getApps() constant public returns (uint) {\r\n    return dAppArray.length;\r\n  }\r\n\r\n  function validDApp(address appAddr) constant public returns (bool) {\r\n    if (appAddr!=0&&dAppsMap[appAddr].dAppAddr == appAddr) {\r\n      return true;\r\n    }else{\r\n      return false;\r\n    }\r\n  }\r\n\r\n  function validVoter() constant public returns (bool)  {\r\n    if (voters[msg.sender].hasVote == 1) {\r\n      return true;\r\n    }else{\r\n      return false;\r\n    }\r\n  }\r\n\r\n  function validOwner(address appAddr) constant public returns (bool) {\r\n    if(dAppsMap[appAddr].owner==msg.sender){\r\n      return true;\r\n    }else{\r\n      return false;\r\n    }\r\n  }\r\n\r\n  function trans(address toAddr,uint num) payable {\r\n    //require(toAddr!=0&&msg.sender==contractOwner&&num<=this.balance);\r\n    require(toAddr!=0&&msg.sender==contractOwner&&num<=msg.sender.balance);\r\n    toAddr.transfer(num);\r\n    emit transEvent(msg.sender, toAddr, true);\r\n  }\r\n\r\n  // \r\n  function getBalance() constant public returns (uint) {\r\n    require(msg.sender==contractOwner);\r\n    //return this.balance;\r\n    return msg.sender.balance;\r\n  }\r\n}\r\n",
  "sourcePath": "D:\\projects\\smart-contract\\DApps\\DApp-Vote\\contracts\\DAppVote.sol",
  "compiler": {
    "name": "solc",
    "version": "0.4.24+commit.e67f0147.Emscripten.clang"
  },
  "schemaVersion": "2.0.1",
  "updatedAt": "2018-08-20T17:33:58.808Z"
}